:1046BD006672653D256C75200A00647574793D251B
:0546CD006875200A00E1
:083F61004100DE004100DD001B
:10462C0075AF2175A747EF2480F5A6AF058FAEA215
:10463C00AF9209C2AF75C7AA75C75543A401A209A9
:03464C0092AF2208
:10000300AE0575C7AA75C755439F0175C7AA75C7BE
:100013005543A50175AF2275A74775A68075AEFF39
:1000230075C7AA75C75543A401AD07E4FF12462C53
:10003300AF06AD077F0112462CAF03AD077F021257
:10004300462C90004BE0FD7F0312462C75C7AA7522
:0F005300C75553A5FE75C7AA75C755539FFE2203
:10431D0053B1FE53B2FE53B3FE53B4FE43B4014347
:10432D00B201A2AF9209C2AF75C7AA75C755439125
:10433D0001A20992AF75B702A2AF9209C2AF75C7BC
:10434D00AA75C7555391FEA20992AF43DE0443DE11
:10435D000853DF3F43D60875D10375D9FEE4F5D474
:09436D00F5DCF5D5F5DDD2DE2208
:0641F800900053121B2988
:1041FE007F007E247DF47C00900053E0F8A3E0F96C
:10420E00A3E0FAA3E0FB121A65900059EEF0A3EFBB
:10421E00F0900059E0FEA3E0FF900057E0FCA3E011
:10422E00FD121C1BE47BE87A03F9F8121A65AD0740
:10423E00AC06900059E0F5D1E0A3E0F5D9ECF5D449
:10424E008DDCC3E09DFD900059E09CFCF5D5AF05DB
:04425E008FDDD2DE40
:014262002239
:10447500EF7013C2DF53DEF753DEFBD2DEC280C21C
:10448500909000DEF022EFB4011353DEF743DE0413
:10449500D2DED2DFC2809000DE7401F022EFB402DA
:1044A5001043DE0843DE04D2DED2DF9000DE740264
:0244B500F022F3
:10311B0090009CE0FFA3E090004DCFF0A3EFF09068
:10312B00009EE0FCA3E0FDA3E0FEA3E0FF90004FB8
:10313B00121B29D390004EE094F490004DE09401C3
:10314B0040377401F0A374F4F09000ADE06024906C
:10315B00008CE0B4021D90009B7402F09000DEE046
:10316B00B401167F0212447590004DE4F0A374FA7B
:10317B00F0800690009B7401F0C390004EE094C861
:10318B0090004DE09400505BE4F0A374C8F0900005
:10319B00DEE0B4022590008CE0701F90004F121BF4
:1031AB00350001D4C090004D7401F0A374F4F07F8E
:1031BB000112447590009B7401F09000ADE0602308
:1031CB0090008CE0B4021C9000DEE0B402157F018D
:1031DB0012447590004D7401F0A37490F090009B15
:1031EB007402F07F507E3A7D027C0090004FE0F835
:1031FB00A3E0F9A3E0FAA3E0FBD3121B0540109068
:10320B00004F121B3500023A5090009B7402F09055
:10321B0000A7E0FCA3E0FDA3E0FEA3E0FF90004FBE
:10322B00E0F8A3E0F9A3E0FAA3E0FBC3121B0550FF
:10323B00549000A7E0FCA3E0FDA3E0FEA3E0FF9009
:10324B00004F121B29C390009DE094F490009CE06A
:10325B009401500690009B7402F09000DEE0B401E4
:10326B002490008CE0701E90004F121B350001ADB6
:10327B00B090004D7401F0A3742CF090009B74027D
:10328B00F0FF12447590004FE0FCA3E0FDA3E0FEBD
:10329B00A3E0FF90009E121B2990004DE0FFA3E0DE
:1032AB0090009CCFF0A3EFF090004FE0FCA3E0FD6B
:1032BB00A3E0FEA3E0FF90004DE0FBA3E0900057DE
:1032CB00CBF0A3EBF01241F89000A4E0B404357BF3
:1032DB00FF7A4679BD90004FE0FCA3E0FDA3E0FE32
:1032EB00A3E0FF900058121B29121D187BFF7A4692
:1032FB0079C790004DE0FFA3E0900058CFF0A3EF0B
:04330B00F0121D1887
:01330F00229B
:10469100E4FF1244757F027E00124670C2857F01DD
:0646A1007E0012467022AB
:1044F90090009E121B3500023A5090009C7401F006
:10450900A3742CF090009B7401F012311B7F017E83
:1045190000124670D2857F047E0012467090008C8E
:10452900E0B402067F01124475227F02124475220B
:103C6800E4900048F0A3F0A3121B350000000053B5
:103C7800B17F53B27F53E8F043E80243B18053B2B7
:103C88007FE4F5F643F60443E10190004EF090001E
:103C98004EE0C3940A5055C2EFD2EE30EFFDAFC2EA
:103CA800900048E4F0A3EFF0AFC3EF75F010A4FF65
:103CB800AEF0E02FF0900048E03EF090004AE0F8C7
:103CC800A3E0F9A3E0FAA3E0FB900048E0FEA3E03C
:103CD800FFE4FCFDEB2FFFEA3EFEED39FDEC38FC7E
:103CE800A3121B2990004EE004F080A2C2EF9000BE
:103CF8004AE0FCA3E0FDA3E0FEA3E0FFE41214F019
:103D08007B0A7AD779A3783D1213EA12152E900010
:0E3D180048EEF0A3EFF0900048E0FEA3E0FFBD
:013D2600227A
:103D2700E4900048F0A3F0A3121B350000000053F5
:103D3700B3FD53B4FD53E8F043E80743B30253B46C
:103D4700FDE4F5F643F68043E10190004EF0900064
:103D57004EE0C3940A5055C2EFD2EE30EFFDAFC22A
:103D6700900048E4F0A3EFF0AFC3EF75F010A4FFA5
:103D7700AEF0E02FF0900048E03EF090004AE0F807
:103D8700A3E0F9A3E0FAA3E0FB900048E0FEA3E07C
:103D9700FFE4FCFDEB2FFFEA3EFEED39FDEC38FCBE
:103DA700A3121B2990004EE004F080A2C2EF9000FE
:103DB7004AE0FCA3E0FDA3E0FEA3E0FFE41214F059
:103DC7007B0A7AD779A3783D1213EA12152E900051
:0E3DD70048EEF0A3EFF0900048E0FEA3E0FFFE
:013DE50022BB
:103AB800E4900048F0A3F0A3121B35000000005367
:103AC800B1F753B2F753E8F043E80643B10853B2ED
:103AD800F7E4F5F643F64043E10190004EF090001C
:103AE8004EE0C3940A500FC2EFD2EE30EFFD9000C3
:103AF8004EE004F080E8E490004EF090004EE0C301
:103B0800940A5055C2EFD2EE30EFFDAFC290004894
:103B1800E4F0A3EFF0AFC3EF75F010A4FFAEF0E050
:103B28002FF0900048E03EF090004AE0F8A3E0F95A
:103B3800A3E0FAA3E0FB900048E0FEA3E0FFE4FC6A
:103B4800FDEB2FFFEA3EFEED39FDEC38FCA3121B1E
:103B58002990004EE004F080A2C2EF90004AE0FCF9
:103B6800A3E0FDA3E0FEA3E0FFE41214F07B5C7A7F
:103B78008F79A2783E1213EA12152E900048EEF0C3
:0B3B8800A3EFF0900048E0FEA3E0FF78
:013B9300220F
:103DE600E4900048F0A3F0A3121B35000000005336
:103DF600B1EF53B2EF53E8F043E80543B11053B2C5
:103E0600EFE4F5F643F62043E10190004EF0900012
:103E16004EE0C3940A5055C2EFD2EE30EFFDAFC26A
:103E2600900048E4F0A3EFF0AFC3EF75F010A4FFE5
:103E3600AEF0E02FF0900048E03EF090004AE0F847
:103E4600A3E0F9A3E0FAA3E0FB900048E0FEA3E0BC
:103E5600FFE4FCFDEB2FFFEA3EFEED39FDEC38FCFE
:103E6600A3121B2990004EE004F080A2C2EF90003E
:103E76004AE0FCA3E0FDA3E0FEA3E0FFE41214F099
:103E86007B547AE379A5783D1213EA12152E900039
:0E3E960048EEF0A3EFF0900048E0FEA3E0FF3E
:013EA40022FB
:1046E60075C40475C6FF75C505439C02D2AF43C4A5
:0246F600082298
:0B470800EF600443C4082253C4F722F2
:030083000243CE67
:0843CE00C0E0C083C082C0D032
:1043D6009000DDE004F0E0B4043790009AE004F0C9
:1043E6007006900099E004F0900094E004F07006E6
:1043F600900093E004F0900098E004F070069000BE
:1044060097E004F09000B0E0600204F09000DDE474
:04441600F053C4EFAC
:09441A00D0D0D082D083D0E03272
:1044B70043B10253B2FD43B32053B4DF43C9205382
:1044C700C9AF53C8FE43C9804392104393305393F7
:1044D700DF43941053F1F043F10543922043930CCB
:1044E7005393F743942053F10F43F180439B04D236
:0244F700CA22D7
:1045DA00E4FDFCEF6010AFE6AD07AFE7EFFEE42DB8
:1045EA00FDEC3EFC8010AFE47C00AD07AFE5EFFECA
:0A45FA00E42DFDEC3EFCAE04AF051D
:014604002293
:03006300024376DF
:10437600C0E0C0F0C083C082C0D075D000C000C00D
:1043860001C002C003C004C005C006C007E59230E4
:10439600E10B7F011225846393045392FDE592306D
:1043A600E00BE4FF1225846393015392FED007D0FD
:1043B60006D005D004D003D002D001D000D0D0D092
:0843C60082D083D0F0D0E03278
:1045780053B1DF43B22043B31043B41053B37F4366
:10458800B48053B1FB53B2FB53B3BF53B4BF53B35F
:10459800FB53B4FBC285C294C297C282D296D29210
:0145A80022F0
:10417F00C294D2977FF47E017D007C001242C090E2
:10418F000095E06002D2927FF47E017D007C0012E8
:10419F0042C0900095E06002C2927FF47E017D00E4
:1041AF007C001242C0900095E06002D292C2977FCD
:1041BF00F47E017D007C001242C0900095E0600209
:1041CF00C2927FF47E017D007C001242C090009568
:1041DF00E06002D2927FF47E017D007C001242C02B
:0941EF00900095E06002C29222EA
:05007D00D294D297228D
:05471300C294C29722D0
:05471800C294D29722BB
:10464F00E4FDFCFB7A01D2DEEF60010AC2DD30DD52
:10465F00FD0DED70010CD3EB9DEA9C50EF2280EC29
:01466F002228
:104100009000487401F0E4A3F0C2AF7F05FEFDFC0F
:104110001242C0900049E0C3941E50609000487461
:1041200001F0A3E0C394024006E0D39403402D9035
:104130000049E0C3940A4006E0D3940D401E90006D
:1041400049E0C3940F4006E0D39410400F9000491B
:10415000E0C39418400BE0D3941D5005E490004850
:10416000F0900049E030E00405D9800215D99000B4
:0E41700048E0FF12464FA3E004F08097D2AF64
:01417E00221E
:07380B00900048EDF0AE074C
:10381200E4F9C2AFE030E016C3E5D99EF5D9E4FF82
:1038220012464FEE25D9F5D9E412464F800DC3E575
:10383200D99EF5D97F0112464F7901900048E030B8
:10384200E12FE96016EE25D9F5D9E4FF12464FC300
:10385200E5D99EF5D9E412464F8034C3E5D99EF5E9
:10386200D9E4FF12464FEE25D9F5D9E412464F802E
:103872001EE9600EEE25D9F5D97F0112464FE4F913
:10388200800DC3E5D99EF5D97F0112464F7901908B
:103892000048E030E22FE96016EE25D9F5D9E4FFC1
:1038A20012464FC3E5D99EF5D9E412464F8034C380
:1038B200E5D99EF5D9E4FF12464FEE25D9F5D9E4B4
:1038C20012464F801EE9600EEE25D9F5D97F01120E
:1038D200464FE4F9800DC3E5D99EF5D97F01124622
:1038E2004F7901E96059EE25D9F5D9E4FF12464F27
:1038F200C3E5D99EF5D9E412464FEE25D9F5D90F85
:1039020012464FC3E5D99EF5D9E41F12464FEE2564
:10391200D9F5D9E412464FC3E5D99EF5D9E412464A
:103922004FEE25D9F5D9E412464FC3E5D99EF5D914
:10393200E412464FEE25D9F5D9E412464F8058C31A
:10394200E5D99EF5D9E4FF12464FEE25D9F5D9E423
:1039520012464FC3E5D99EF5D90F12464FEE25D92F
:10396200F5D9E41F12464FC3E5D99EF5D9E41246B4
:103972004FEE25D9F5D9E412464FC3E5D99EF5D9C4
:10398200E412464FEE25D9F5D9E412464FC3E5D9E4
:093992009EF5D9E412464FD2AFB4
:01399B002209
:104263005674656D703D256875200A005670613D72
:10427300256875200A0025730A00566572733A2073
:10428300533631204350533134354256455F303134
:104293005F56312E302E372020323031382D3033D7
:1042A3002D30360051433D256264200A00495041B8
:0D42B3006F66667365743D256875200A000E
:103F69004100A40042009900004200930000420071
:103F79009700004100A60041008C00420085000026
:103F89004400A70001ADB041008D004100AC0041E3
:103F9900008E004100AD004100A5004200910000E3
:103FA90042008F0000410095004100AB004100B084
:053FB90000410096002C
:10293C00C2AF75C7AA75C7554397C0E59630E3FB80
:10294C00800280F775C7AA75C75575960275C7AA18
:10295C0075C7555397C012431D9000577401F0A3CF
:10296C0074F4F07F507E3A7D027C001241F8E4FF53
:10297C001244757F007EC27D017C001245A912466F
:10298C00E61244B7124578D2AFC2921246F8123A08
:10299C00B8D3EF94C8EE943240089000A47407F0BA
:1029AC0080069000A47401F0123C68900005EEF0D3
:1029BC00A3EFF0D3E09480900005E0940C500DC38D
:1029CC00A3E09458900005E09402501E7BFF7A42DD
:1029DC007963900005E0FFA3E0900058CFF0A3EFDF
:1029EC00F0121D189000957401F012417F124718D7
:1029FC007FE87E037D007C001242C0E4900095F0DD
:102A0C00123AB8900058EEF0A3EFF07BFF7A4279BF
:102A1C006F121D18123AB8D3EF9440EE941F400871
:102A2C0090008C7402F08005E490008CF0D2927FC0
:102A3C00647E007D007C001242C0123DE690008551
:102A4C00EEF0A3EFF07BFF7A427979C00390005847
:102A5C00EBF0A37442F0A3747DF0D003121D187B2D
:102A6C00FF7A4279A790008CE0900058F0121D1864
:102A7C007BFF7A4279B0900085E0FFA3E09000588C
:102A8C00CFF0A3EFF0121D189000A4E014B40700CF
:102A9C0050F6902AAC75F003A4C58325F0C583735A
:102AAC00022AC1022B53022B59022B65022B7102F5
:102ABC002BDF022C69123AB8D3EF94C8EE94324053
:102ACC000B9000A47407F012469180BC123AB8D354
:102ADC00EF9458EE941B400890008C7402F0800523
:102AEC00E490008CF0123C68900005EEF0A3EFF03F
:102AFC007BFF7A427963900005E0FFA3E0900058D9
:102B0C00CFF0A3EFF0121D18124691D2929000A6AE
:102B1C00E070087FC8FEFDFC1242C0900088E0B453
:102B2C0005119000A6E0600B7F2C7E017D007C00DF
:102B3C001242C0E49000A6F07F2C7E01FDFC1242F4
:102B4C00C0123B94022A94123671022A947B017AA9
:102B5C000079AE122130022A947B017A0079AE12F0
:102B6C000086022A94D292E4900003F0A3F0C39062
:102B7C000004E09458900003E09402504DC2927F00
:102B8C00F47E017D007C001242C0D2927FF47E0163
:102B9C007D007C001242C0123C68D3EF946CEE9422
:102BAC000740177F2C7E017D007C001242C0123C36
:102BBC0068D3EF946CEE94075010900004E004F08E
:102BCC007006900003E004F080A49000A47401F05F
:102BDC00022A94D2921244F97F057E007D007C007B
:102BEC001242C0123DE6900085E0FCA3E0FDC3EF6D
:102BFC009DFFEE9C900003F0A3EFF0D3E0941E90A9
:102C0C000003E094004016A3E09441900003E0948C
:102C1C0000500A90008CE0700480358023D3900023
:102C2C0004E0940F900003E094004014A3E0942D72
:102C3C00900003E09400500890008CE06402601057
:102C4C001246917F2C7E017D007C001242C0808553
:102C5C00D292D2969000A47401F0022A94124718D2
:102C6C00123AB8D3EF94C8EE9432401C7FE87E033E
:102C7C007D007C001242C0C2927FE87E037D007C06
:102C8C00001242C0D29280D89000A47401F0022AA3
:042C9C0094022A94E0
:012CA0002211
:10407D00EFD394004009EF942050047E018071EF3E
:10408D00C394204009EF943050047E028062EFC348
:10409D0094304009EF944050047E038053EFB448B0
:1040AD00047E04804BEFD394504009EF946050048C
:1040BD007E05803CEFB468047E068034EFD39470A7
:1040CD004009EF948050047E078025EFD394804003
:1040DD0009EF949050047E088016EFB4A4047E0C72
:1040ED00800EEFB4C4047E108006EFB4E2027E149D
:0240FD00AF060C
:0140FF00229E
:0B3FF300900058EBF0A3EAF0A3E9F007
:103FFE00E4A3F0900058E0FBA3E0FAA3E0F9121856
:10400E00F990005CF0E490005BF0900058E0FBA3A8
:10401E00E0FAA3E0F9900001121912FF90005BE0A4
:10402E00C39F502CA3E0FF900058E0A3E0A3E02430
:10403E0003F9E43AFAA3E07C0029F9EC3AFA1218F3
:10404E00F9FEEF6E90005CF090005BE004F080BA39
:10405E00900058E0FBA3E0FAA3E0F99000021219D9
:0E406E0012FF90005CE06F60037F08227F006D
:01407C002221
:1046F8007E007F487D007B007A007922121C4822C8
:0B331000900048EBF0A3EAF0A3E9F006
:10331B00E4A3F0A3F0A37400F0A37422F0A3E4F0F1
:10332B00A37400F0A3742FF0A3E4F0A37400F0A334
:10333B007446F0A3E4F0A37400F0A37453F0900070
:10334B0048E0FBA3E0FAA3E0F9121B86EB8A838922
:10335B00827B007A0079007006E5827002E583605B
:10336B001D7B007A007900C003C002C001900048A9
:10337B00E0FBA3E0FAA3E0F9121BA61246F89000BB
:10338B0048E0FBA3E0FAA3E0F9121B86EB8A8389E2
:10339B00827B007A0079007006E5827002E583700B
:1033AB0068900052E0FBA3E0FAA3E0F990000A1248
:1033BB00191264017053900055E0FBA3E0FAA3E0EF
:1033CB00F9123FF3EF7026900055E0FBA3E0FAA350
:1033DB00E0F9C003C002C001900048E0FBA3E0FA93
:1033EB00A3E0F9121BA6E490008EF0800A9000A4D3
:1033FB00E0B40203124691900052E0FBA3E0FAA363
:10340B00E0F990000AE4121951900048E0FBA3E0A8
:10341B00FAA3E0F9121B86EB8A8389827B007A0080
:10342B0079007006E5827002E583706990004CE0CC
:10343B00FBA3E0FAA3E0F990000A121912640170E1
:10344B005490004FE0FBA3E0FAA3E0F9123FF3EF37
:10345B00702790004FE0FBA3E0FAA3E0F9C003C094
:10346B0002C001900048E0FBA3E0FAA3E0F9121BB5
:10347B00A690008E7401F0800A9000A4E0B40203C1
:10348B0012469190004CE0FBA3E0FAA3E0F9900008
:10349B000AE4121951900048E0FBA3E0FAA3E0F90B
:1034AB00121B86EB8A8389827B007A007900700677
:1034BB00E5827002E583700590004B04F090004BA1
:0234CB00E0FF20
:0134CD0022DC
:103EA500900003121912F50A900004121912F50B6D
:103EB500900008121912F50CE4FFE50B701F900035
:103EC50008121951900008121912F50C90000512EC
:103ED500191260027F07E4F50A050B804BE50BC359
:103EE50094095018E50CC313F50C9000051219122E
:103EF500B40105430C80050A050B802CE50BB409BC
:103F050014900005121912FEE50A5401B506027F48
:103F150005050B8013E50BB40A0E90000512191266
:103F2500640160027F06050B900008E50C1219512B
:103F3500E50BB40B0F9000097401121951E4F50A51
:103F4500F50BF50C900004E50B121951900003E5F3
:0B3F55000A12195190000CEF121951D4
:013F6000223E
:05258400900000EFF0E3
:10258900E4F508F509A3F0A3F0900000E0600E90CF
:102599000002742FF09000017422F0800C90000268
:1025A9007453F09000017446F0900001E0F8E67071
:1025B90017E0240AF8E67010E0F87601E02402F842
:1025C9007601E0240BF87601900000E06046AFE761
:1025D900EFFEADE67C00E42DF515EC3EF514D3E5F0
:1025E900159513E5149512400EE5159513F509E5B2
:1025F900149512F5088015C374FE9513FF74FF95A1
:1026090012FEE5152FF509E5143EF5088514128526
:1026190015138044AFE5EFFEADE47C00E42DF51918
:10262900EC3EF518D3E5199517E5189516400EE512
:10263900199517F509E5189516F5088015C374FE5F
:102649009517FF74FF9516FEE5192FF509E5183E54
:10265900F508851816851917900001E0F8E6640158
:10266900600302293BE02402F8E66401707CC3E5BB
:10267900099486E50894014018E50994EEE5089463
:1026890002500EE02405F8E4F6E02406F87601800D
:1026990062D3E5099487E5089400402DE5099486FD
:1026A900E50894015023900001E02405F87601E043
:1026B900240BF8E664016006E02402F8E4F69000D1
:1026C90001E02406F87601802A900001E0F8E4F69A
:1026D900E0240AF8E66401601A7E007F0D7D00E0BF
:1026E900F97A007B00121C488009900001E024025D
:1026F900F87601900001E02406F8E664016003021F
:10270900293BE0240BF8E6640160030227A0E024DA
:1027190005F8E6B40107E004F80602293290000141
:10272900E02405F8E6600302293290008CE0640297
:1027390070359000A4E06404702D900001E004F865
:10274900E6D394084021E004F8E694325019900049
:1027590000E06013E4900093F0A3F09000A5E0700E
:1027690006900099F0A3F0900001E004F8E6D394F4
:1027790004400FE02404F87601E0240BF876020205
:102789002932900001E004F8E4F6E0F8E4F6E024E8
:102799000CF87609022932900001E0240BF8E6646E
:1027A900026003022842E0F97A007B00123EA5EF9D
:1027B9007068900001E02409F8E6640160030229C9
:1027C90032E02409F8E4F6E02408F8E6FFA3E0F88B
:1027D900A607E0F8E6FF12407DE004F8A60790009E
:1027E90001E0240BF87603A3E0F8E6B40310E490C3
:1027F9000093F0A3F0900097F0A3F0022932900023
:1028090002E0F8E664046003022932900099F0A31B
:10281900F0900097F0A3F0022932900001E0240C17
:10282900F8E670030229327E007F0D7D00E0F97A17
:10283900007B00121C48022932900001E0240BF8A9
:10284900E6640360030228D7E0F97A007B00123EB0
:10285900A5EF705F900001E02409F8E66401702299
:10286900E02409F8E4F6E02408F8E6FFE02407F894
:10287900E6FEA3E024032EF8A607900001E0240752
:10288900F806900002E004F8E6FF900001E0240752
:10289900F8E66F600DE02407F8E6C39414500302CC
:1028A9002932900001E02407F8E4F6E0240BF876D9
:1028B900048076900001E0240CF8E6606C7E007FCD
:1028C9000D7D00E0F97A007B00121C48805B9000C6
:1028D90001E0240BF8E66404704FE0F97A007B000C
:1028E900123EA5EF702A900001E02409F8E6640180
:1028F9007037E02409F8E4F6E02408F8E6FFA3E0DD
:102909002402F8A607900001E0240AF8760180194C
:10291900900001E0240CF8E6600F7E007F0D7D0039
:10292900E0F97A007B00121C48900001E02406F8C7
:02293900E4F6C2
:01293B002279
:100066004970613D256875200A0073697061206CCE
:0700760061726765210A00B9
:103B9400E4900093F0A3F01244F97F027E007D00CC
:103BA4007C001242C0123DE6900091EEF0A3EFF0CB
:103BB400900085E0FEA3E0FFD3900092E09F900088
:103BC40091E09E4014900085E0A3E0900092E09F75
:103BD400F0900091E09EF08007E4900091F0A3F053
:103BE4001246917BFF7A007966900091E0FFA3E092
:103BF400900058CFF0A3EFF0121D18D3900092E07C
:103C0400942C900091E09401400690008CE06016A2
:103C1400D3900092E0942C900091E094014017908E
:103C2400008CE0B402107BFF7A007970121D1890AA
:103C340000A47401F022C3900092E09412900091C9
:103C4400E09400400DD3A3E09412900091E094001E
:103C540040117F057E007D007C001242C09000A4CC
:043C64007402F022D4
:1046D20053533D256275200A00746F2073656C6523
:0446E20063740A00F3
:10367100900007E4F0A3F0A3F07F01124708900047
:103681008FE07004A3E064027018D2927FBC7E02C6
:10369100FDFC1242C0C2927FE87E037D007C0012D5
:1036A10042C01244F97F0A7E007D007C001242C0B4
:1036B1001246F8E4900093F0A3F0C3900094E094D4
:1036C10046900093E0940040217F0A7E007D007CBB
:1036D100001242C09000A47401F0E490008AF0A3AB
:1036E100F090008FF0A3F00237FA7B017A0079079E
:1036F100123310EF640170030237EF900007E0FB13
:10370100A3E0FAA3E0F91218F9640160030237E7B4
:1037110090008FE07004A3E0640270089000A4049C
:10372100F00237FA7BFF7A4679D2C003C002C001AA
:10373100900007E0FBA3E0FAA3E0F990000312195F
:1037410012900058F0D001D002D003121D18900041
:1037510007E0FBA3E0FAA3E0F99000031219122499
:1037610003FFE433FE900089E0C39FEE6480F874A8
:1037710080985019900007E0A3E0A3E090000312A5
:10378100191224FDFF900089E0D39F5009E49000B5
:103791008BF090008AF0900007E0FBA3E0FAA3E031
:1037A100F9900003121912900089F0900007E0A32C
:1037B100E0A3E0900003121912D39405401D90007C
:1037C100A47403F090008BE060249000A47401F0D5
:1037D1007BFF7A4679DB121D188013124691900007
:1037E100A47401F080139000A47401F0800B900088
:1037F100A4E0640270030236BB9000A4E06403609D
:0938010008124691E49000ABF0BE
:01380A00229B
:1046A7004543485F49440D0A0073697061206C6196
:0646B700726765210A0094
:043FBE004100DF00DF
:0B213000900007EBF0A3EAF0A3E9F039
:10213B00E4A3F0A3F0A3F0A37417F0A3E4F0A3F0CF
:10214B00A3F0900007E0FBA3E0FAA3E0F9740512FB
:10215B00193FE4900093F0A3F01246F890000DE0C5
:10216B00FFC3900094E09F900093E094004021E522
:10217B002DD39401501AE551940150149000A4747E
:10218B0001F07F0A7E007D007C001242C002256EAA
:10219B007B017A00790E123310EF6003022563E4A2
:1021AB00900093F0A3F090000EE0FBA3E0FAA3E005
:1021BB00F91218F9121BF524D20224DB0625491853
:1021CB0025491925492825492925493825494824D0
:1021DB00555125495825496821FC71254978243DDD
:1021EB00812549842549A42549C42549E2000025B8
:1021FB0063E4900093F0A3F090000BE0700204F006
:10220B0090000D741EF0A3E0FBA3E0FAA3E0F9909D
:10221B000006121912548090000CF090000EE0A3EF
:10222B00E0A3E0900003121912900096F0E49000E6
:10223B00DFF090000EE0A3E0A3E09000051219126E
:10224B006442704190000EE0A3E0A3E09000061200
:10225B001912B464309000AC7401F090000EE0A33E
:10226B00E0A3E0900007121912B4401E90000EE09C
:10227B00A3E0A3E0900008121912B4160D9000DF32
:10228B007401F08005E49000ACF090000EE0FBA32D
:10229B00E0FAA3E0F9900004121912704190000EBD
:1022AB00E0A3E0A3E09000051219126459702F907F
:1022BB00000EE0A3E0A3E0900006121912B4641E16
:1022CB0090008CE0B402089000DF7402F08006905E
:1022DB0000DF7401F07BFF7A4679A7121D1890007E
:1022EB000EE0FBA3E0FAA3E0F990000412191270C0
:1022FB001990000EE0A3E0A3E0900005121912B4B0
:10230B005A089000AD7401F08005E49000ADF09098
:10231B00000EE0FBA3E0FAA3E0F9900006121912FD
:10232B006430703C90000EE0A3E0A3E09000071235
:10233B001912B4312B90000EE0A3E0A3E09000083B
:10234B00121912B4321A90000EE0A3E0A3E0900031
:10235B0009121912B433099000A57401F002256318
:10236B00E49000A5F090008FF0A3F09000ACE0603B
:10237B0039D3900092E09469900091E0940040066C
:10238B0090008CE0601AD3900092E09446900091FC
:10239B00E09400500302242490008CE064027079D6
:1023AB0090008FE4F0A304F0806F9000ADE06036F6
:1023BB00D3900092E09446900091E09400400690F8
:1023CB00008CE06017D3900092E09432900091E083
:1023DB009400404590008CE06402703D90008FE4C7
:1023EB00F0A304F08033D3900092E0949690009188
:1023FB00E09400400690008CE06016D3900092E0D1
:10240B00945A900091E09400400F90008CE0B4023D
:10241B000890008FE4F0A304F090008FE07002A30B
:10242B00E070030225637BFF7A4679B0121D180218
:10243B002563E4900093F0A3F090000CE06003029E
:10244B0025639000A404F0022563E4900093F0A3AD
:10245B00F090000BE0C3940150099000A47401F0BC
:10246B0002256390000B7402F090000EE0FBA3E0DA
:10247B00FAA3E0F9900003121912543FFF900007E2
:10248B00E0FBA3E0FAA3E0F9900001EF12195190E1
:10249B00000EE0FBA3E0FAA3E0F99000051219127D
:1024AB005407FF90000AE06F60149000A47401F0D1
:1024BB007F0A7E007D007C001242C00225639000E3
:1024CB00A47404F00225639000A47406F002256343
:1024DB00E4900093F0A3F090000BE064016008908F
:1024EB0000A47401F0807190000EE0FBA3E0FAA34E
:1024FB00E0F9900003121912FF900007E0FBA3E034
:10250B00FAA3E0F9EF12193F900007E0FBA3E0FA02
:10251B00A3E0F91218F9C394054010900007E0A34B
:10252B00E0A3E01218F9D394CD40139000A47401EA
:10253B00F07F327E007D007C001242C0801AE49056
:10254B000093F0A3F090000BE070079000A404F050
:10255B00800690000AE004F09000A4E0640370038E
:10256B000221679000A4E06404600D124691E4FF21
:08257B00124708E49000ABF0E8
:012583002235
:102F110046420A0072705F737461626C655F636E32
:102F210074203D2568750A00636865636B207374BE
:102F310061626C655F72705F76616C75653D256875
:102F4100750A0070615F737461626C655F636E74B2
:102F5100203D2568750A00737461626C655F70615C
:102F61005F76616C75653D256875212121210A0017
:102F71006C702562750A0046697273745670613D02
:102F8100256875200A00565045414B2121210A0030
:102F910052502074696D656F757421210A00434593
:102FA1002074696D656F7574200A005361766570D0
:102FB100200A0043452074696D656F757420200AED
:102FC1000053617665200A0044504C2B0A0045509D
:102FD100543D256264200A0052503D256275200A45
:102FE100006E3D25640D0A004621210D0A0049703D
:102FF10061633D256875200A004F5650210A004F34
:103001004350210A00506F7765725F72656365698D
:103011007665643D2568752000506F7765725F7035
:10302100613D256875200A005670613D256875204F
:103031000A004970613D256875200A00464F442009
:103041000A005674656D703D256875200A006C7024
:103051003D25687520210A00656368256C640D0AA9
:103061000043453D256264200A0041534B31200A4B
:103071000041534B30200A004368617267696E67F3
:103081003D25626421210D0A004974277320736173
:103091006D73756E670A00307832382C2562782C92
:1030A100256278200D0A00307831392025780D0A03
:1030B1000046420D0A0057726F6E6720706B7428CC
:1030C1003078256278290A0063636F6B2025686474
:1030D1000A006578697420707420332074696D6505
:1030E100200A005B70745D3B726561736F6E5F6394
:1030F10075723D2562752C20726561736F6E5F6C10
:103101006173743D2562752C20657869745F7074F4
:0A3111005F636E743D2562750A00CD
:103FC2004200DB00004100BD004100BC004B00BECE
:103FD200141E282D32373C414141465200C902028B
:103FE2000206080A0A0A0A0202030306060A0A0A63
:104539009000DEE0B4013790009EE0FCA3E0FDA30B
:10454900E0FEA3E02498FFEE343AFEE43DFDE43CAE
:10455900FC90009E121B2912311B7F021244757BAD
:0F456900FF7A2F7911121D189000A37401F02210
:0E2CA100900049ECF0A3EDF0A3EAF0A3EBF0F5
:102CAF00E490004EF0A304F0A37490F0A37405F029
:102CBF00A374DCF0A37407F0A374D0F0EF701A9034
:102CCF0000B2F0A3F0A3F0A3F0A3F0A3F0A3F0A33E
:102CDF00F0A3F0A3F09000B1F09000B1E0C394FF27
:102CEF005003E004F09000B1E0D3941E5003022E85
:102CFF00F89000DFE06003022EF890004DE094643E
:102D0F004003022EF89000A6E0601990004FE4F007
:102D1F00A374FAF0A37409F0A374C4F0A3740FF0B2
:102D2F00A374A0F09000ACE07003022EF890004A5C
:102D3F00E024FAFF900049E03400FEC39000B6E0B3
:102D4F009F9000B5E09E504890004AE02406FF9007
:102D5F000049E034FFFED39000B6E09F9000B5E04D
:102D6F009E402D9000B3E004F070069000B2E00496
:102D7F00F0E49000B4F07BFF7A2F79159000B2E069
:102D8F00FFA3E0900058CFF0A3EFF0121D188022A0
:102D9F009000B4E004F0E0D394054016900049E0B1
:102DAF00FFA3E09000B5CFF0A3EFF0E49000B2F0F6
:102DBF00A3F090004FE0FEA3E0FFD39000B3E09F9D
:102DCF009000B2E09E40467BFF7A2F79299000B5A4
:102DDF00E0FFA3E0900058CFF0A3EFF0121D189082
:102DEF000051E0FEA3E0FFC39000B6E09F9000B556
:102DFF00E09E500890004E7401F08011E49000B2F4
:102E0F00F0A3F09000B5F0A3F09000B4F090004C58
:102E1F00E024FAFF90004BE03400FEC39000BBE0CB
:102E2F009F9000BAE09E504890004CE02406FF901F
:102E3F00004BE034FFFED39000BBE09F9000BAE060
:102E4F009E402D9000B8E004F070069000B7E004AB
:102E5F00F0E49000B9F07BFF7A2F79449000B7E04F
:102E6F00FFA3E0900058CFF0A3EFF0121D188022BF
:102E7F009000B9E004F0E0D39405401690004BE0C9
:102E8F00FFA3E09000BACFF0A3EFF0E49000B7F00B
:102E9F00A3F090004FE0FEA3E0FFD39000B8E09FB7
:102EAF009000B7E09E40427BFF7A2F79589000BA8E
:102EBF00E0FFA3E0900058CFF0A3EFF0121D1890A1
:102ECF000053E0FEA3E0FFC39000BBE09F9000BA69
:102EDF00E09E500890004E7402F0800DE49000B711
:102EEF00F0A3F0A3F0A3F0A3F090004EE0600D7BF1
:102EFF00FF7A2F7971900058F0121D1890004EE054
:012F0F00FFC2
:012F1000229E
:104423007F187EF07D017C0090009EE0F8A3E0F908
:10443300A3E0FAA3E0FBC3121B05700C90009E12CD
:104443001B350001EFB480267FB47EEF7D017C0035
:1044530090009EE0F8A3E0F9A3E0FAA3E0FBC31207
:104463001B05700A90009E121B350001F0181231D3
:024473001B220A
:0534CE00900048EFF042
:1034D3007F037E007D007C001242C09000A6E06066
:1034E3000C9000A7121B350001ADB0800A9000A715
:1034F300121B350001ADB09000A3E06025C3940A10
:1035030050209000A7E0FCA3E0FDA3E0FEA3E0248D
:1035130020FFEE344EFEE43DFDE43CFC9000A71298
:103523001B29900048E0D3648094B7400C9000A618
:10353300E060069000487437F090009BE0640160FF
:10354300030236489000DEE0B4021C900048E0FF1E
:103553003395E0FEFDFCE47B64FAF9F81219DA9086
:103563000049121B29801B900048E0FF3395E0FEC1
:10357300FDFCE47B2C7A01F9F81219DA9000491268
:103583001B29900048E0643C6004E0B4C42590002B
:1035930049E0FCA3E0FDA3E0FEA3E0FFEC1214F07E
:1035A300E4FBFA79C0783F1213EA12152E90004912
:1035B300121B29900048E0F46004E0B4010A900073
:1035C30049121B3500000000900048E064FE6009CA
:1035D300E064FD6004E0B4FC249000A5E0601E906C
:1035E3000048E0FF3395E0FEEF25E0FFEE33FE9069
:1035F300009DE02FF090009CE03EF0806D90009ED7
:10360300E0FCA3E0FDA3E0FEA3E0FFC004C005C00F
:1036130006C007900049E0FCA3E0FDA3E0FEA3E0A1
:10362300FFFBAA06A905A804D007D006D005D0043D
:10363300C3EF9BFFEE9AFEED99FDEC98FC90009E84
:10364300121B298025900048E0F46004E0B40105D2
:10365300E4900048F0900048E0FF3395E0FE9000CE
:0D3663009DE02FF090009CE03EF012311B26
:013670002237
:0B008600900007EBF0A3EAF0A3E9F004
:10009100E4A3F0A3F0A3F0900018F0A3F0A304F000
:1000A100E4A3F0A3F0A3F0A304F0E4A3F0A3F0A36E
:1000B100F0A3F0A3F0A3F0900029121B3500000675
:1000C100A4E490002DF0A3F0A37405F0A37401F053
:1000D100E4A3F0A3F0A3F0A3F0A3F0A3F0A3F0A393
:1000E100121B3500000000E490003CF0A3F0A3F0E7
:1000F100A3F0A304F0E4A3F0F9A3C9F0A3F0A3E9EA
:10010100F0E4900093F0A3F0900099F0A3F0900038
:1001110097F0A3F09000B0F0123AB89000DBEEF047
:10012100A3EFF090003C7401F0A374F4F07BFF7A2C
:100131002F79789000DBE0FFA3E0900058CFF0A387
:10014100EFF0121D18E4900087F01246F8123D27D7
:10015100D3EF944EEE9407401B1246919000A47485
:1001610001F07BFF7A2F7987121D189000877406A2
:10017100F0021343D390009AE094D8900099E09450
:1001810059401D90001DE070179000A404F07BFF02
:100191007A2F7991121D189000877403F00213438E
:1001A100C3900098E094D0900097E094075021907C
:1001B1000093E0FEA3E0FFE4FCFD900029E0F8A33A
:1001C100E0F9A3E0FAA3E0FB121B05400302036F71
:1001D100C3900098E094D0900097E09407500302F8
:1001E100028C9000BCE004F0E094034019E4F0902C
:1001F10000A404F07BFF7A2F799F121D18900087CD
:100201007402F0021343E4900097F0A3F090009B76
:10021100E06402602290009EE0FCA3E0FDA3E0FE0A
:10022100A3E02488FFEE3413FEE43DFDE43CFC90A2
:10023100009E121B29800E90009DE024CEF09000BC
:100241009CE034FFF07F507E3A7D027C0090009E5E
:10025100E0F8A3E0F9A3E0FAA3E0FBD3121B054009
:100261001E90009E121B3500023A5090009DE02422
:10027100CEF090009CE034FFF090009B7402F07B84
:10028100FF7A2F79AC121D1802036C900093E0FEE7
:10029100A3E0FFE4FCFD900029E0F8A3E0F9A3E06E
:1002A100FAA3E0FBD3121B05400302036C9000A5E7
:1002B100E060089000BD7402F080069000BDE0048B
:1002C100F09000BDE0C394024019E4F09000A40452
:1002D100F07BFF7A2F79B4121D189000877402F019
:1002E100021343E4900093F0A3F0900099F0A3F07F
:1002F10090009BE06402602290009EE0FCA3E0FD80
:10030100A3E0FEA3E02488FFEE3413FEE43DFDE408
:100311003CFC90009E121B29800E90009DE024CE93
:10032100F090009CE034FFF07F507E3A7D027C002B
:1003310090009EE0F8A3E0F9A3E0FAA3E0FBD3125A
:100341001B05401E90009E121B3500023A50900082
:100351009DE024CEF090009CE034FFF090009B746F
:1003610002F07BFF7A2F79C2121D1812311B900007
:100371008CE0600302047B900038121B3500000002
:1003810000900038E0FCA3E0FDA3E0FEA3E0FFE461
:10039100FAF9F8EF2401FFEA3EFEE93DFDE83CFCF5
:1003A100900038121B29123AB890003DE02FFF90BF
:1003B100003CE03E900016F0A3EFF07F017E0012BA
:1003C1004670E47F0AFEFDFC900038E0F8A3E0F9F6
:1003D100A3E0FAA3E0FBD3121B0550030204637BE5
:1003E100FF7A2F79C9121D1890009EE0FCA3E0FD51
:1003F100A3E0FEA3E02488FFEE3413FEE43DFDE418
:100401003CFC90009E121B297F507E3A7D027C00AD
:1004110090009EE0F8A3E0F9A3E0FAA3E0FBD31279
:100421001B05401E90009E121B3500023A509000A1
:100431009DE024CEF090009CE034FFF090009B748E
:1004410002F012311B9000377404F09000A5E060B7
:1004510029D2927F647E007D007C001242C0C2924C
:1004610080189000DBE0FEA3E0FFC3900017E09F3F
:10047100900016E09E50030203829000B0E0D394F6
:10048100C8400E1245399000377403F0E49000B073
:10049100F07B017A007942123310EF600302014EC2
:1004A100900042E0FBA3E0FAA3E0F91218F99000F2
:1004B10025F0900042E0A3E0A3E09000031219129E
:1004C100900026F0900042E0A3E0A3E09000041227
:1004D1001912900027F0900042E0A3E0A3E0900001
:1004E10005121912900028F0E49000BDF09000BCB4
:1004F100F0900025E064026003020580900087040B
:10050100F07BFF7A2F79CF900026E0900058F0120F
:100511001D18900026E024FD6030240370479000F0
:10052100DFE0D39400400C9000A47401F0124691D6
:100531000213439000A47406F01246917FC87E0016
:100541007D007C001242C00213439000A6E06015BA
:100551009000DFE0700F9000A404F09000ABF01267
:1005610046910213439000A47406F01246917FC88D
:100571007E007D007C001242C002134302134390AF
:100581000025E064046003020DAB7BFF7A2F79D96B
:10059100A3E0900058F0121D189000DFE0B4033C76
:1005A10090002FE0FFE4EF2405FBE433FAE433F994
:1005B100E433F8900026E0FFE4FCFDFE1219DAE4D2
:1005C1007BE87A03F9F81219DAE47BFFFAF9F812F9
:1005D1001A6590000EEEF0A3EFF0803C900007E06A
:1005E100FBA3E0FAA3E0F9900001121912FFE4FC69
:1005F100FDFEC004A905AA06AB07900026E0FF7C1A
:10060100037DE8121C1BD0001219DA7808121B16A0
:1006110090000EEEF0A3EFF09000ADE07003020643
:10062100E4C390000FE0949090000EE09401500319
:100631000206B2D3A3E094E290000EE0940450715C
:10064100900032E004F07006900031E004F07BFF8E
:100651007A2F79E2900031E0FFA3E0900058CFF0CB
:10066100A3EFF0121D18C3900032E094FA9000310C
:10067100E0648094804020E4900033F0A3F0900087
:1006810031F0A374FBF07BFF7A2F79E9121D1890EA
:1006910000217401F0D292D3900032E0941E9000B8
:1006A10031E064809480403BE4900033F0A3F0801B
:1006B10032900034E004F07006900033E004F0D38F
:1006C100900034E09405900033E0648094804013FE
:1006D100E4F0A37405F0E4900031F0A3F0C292902D
:1006E1000021F0123DE6900010EEF0A3EFF09047EC
:1006F10080E493B4FF0DA3E493B4FF07E490003FBB
:10070100F0800690003F7401F090003FE06072902D
:100711004780E493FF7E007C007D64121973A3E49B
:10072100932FFFEC3EFE900010E0FCA3E0FD121CB5
:100731001BC004C005C006C007904782E493FF7E3A
:10074100007C007D64121973A3E4932FFFEC3EFE3D
:10075100AB07FAE4F9F8D007D006D005D004121A95
:1007610065900012EEF0A3EFF07BFF7A2F79EF9006
:100771000012E0FFA3E0900058CFF0A3EFF0121DAC
:1007810018123AB8900016EEF0A3EFF0D3E094C837
:10079100900016E0943240189000A47407F07BFF9B
:1007A1007A2F79FA121D189000877408F00213430A
:1007B100D3900011E094D0900010E0940740219074
:1007C10000A47401F07BFF7A307900121D189000AB
:1007D1008FE4F0A37402F09000877408F0021343D1
:1007E100900016E0FEA3E0FF7C007D64121985AA4B
:1007F10006AB07900010E0FEA3E0FF7C007D0A122B
:100801001985AD03AC02121973900018EEF0A3EF35
:10081100F09000A6E06039D28290000FE025E0F070
:1008210090000EE033F0900018E0FEA3E0FF7C00A2
:100831007D03121973EEC313FEEF13FFD390000F64
:10084100E09F90000EE09E4007E013F0A3E013F05C
:100851007BFF7A30790690000EE0FFA3E09000580C
:10086100CFF0A3EFF0121D187BFF7A30791A9000B8
:1008710018E0FFA3E0900058CFF0A3EFF0121D188D
:100881007BFF7A307929900016E0FFA3E0900058B1
:10089100CFF0A3EFF0121D187BFF7A30793390006F
:1008A10010E0FFA3E0900058CFF0A3EFF0121D1865
:1008B1009000A5E06003020AFA9000ACE070099094
:1008C10000ADE070030209FD90000EE0FEA3E0FF21
:1008D100900018E0FCA3E0C39FFFEC9E90001BF08A
:1008E100A3EFF0C3E0948890001BE06480949340F0
:1008F1000B9000DFE0940140030209CDC390001C7E
:10090100E0949490001BE064809491401290001D4B
:10091100E0D3941440099000DFE070030209CDC3D5
:1009210090001CE0947490001BE06480948E401849
:1009310090001DE0D39414500F9000ACE06009903A
:1009410000DFE070030209CDC390001CE094B89071
:10095100001BE06480948B401590001DE0D394143B
:10096100500C9000ADE0600690008CE0605EC3909A
:10097100001CE0947490001BE06480948E401790FA
:10098100001DE0D39414500E9000ADE0600890007B
:100991008CE064026036D3900019E094289000182E
:1009A100E0942340189000ADE0600690008CE06078
:1009B1001B9000A6E070069000ACE0700FD3900091
:1009C10019E09498900018E0943A401C90001DE0C2
:1009D100D394144009900035E004F0020AA090007D
:1009E10035E02402F0020AA090008FE07002A3E03B
:1009F1006003020AA0900035F0020AA090000EE008
:100A0100FEA3E0FF7C037DE8121985900024EFF03E
:100A1100E0D3940A4003740AF0900018E0FEA3E0CA
:100A2100FF900024E024BEF582E43400F583E0FD6C
:100A31007C00121C1BE47B64FAF9F8121A65A80405
:100A4100A905AA06AB0790000EE0FEA3E0FFE4FCB7
:100A5100FDD3121B054018D390000FE0942C900099
:100A61000EE094014009900035E02402F0803090BE
:100A7100000EE07002A3E07018D3900019E094A476
:100A8100900018E094064009900035E02402F080BF
:100A91000E90008FE07002A3E07004900035F0909A
:100AA100008FE07002A3E06007900035E02404F0BD
:100AB100900096E0C394115005E4900035F0900049
:100AC10035E0D394075011900019E094209000185C
:100AD100E0944E5003020BF59000A47401F09000D5
:100AE1008FE4F0A37402F07BFF7A30793D121D1878
:100AF1009000877407F002134390000BE0FEA3E01F
:100B0100FFC390000FE09FFF90000EE09EFED3EF29
:100B11009423EE9400405F90000BE0FEA3E0FF9071
:100B2100000FE09FFF90000EE09EFEC3EF94FAEEEF
:100B31009400504290000AE0C39405503990001887
:100B4100E0FEA3E0FF7C007D41121C1BE47B64FA04
:100B5100F9F8121A65A804A905AA06AB0790000EB8
:100B6100E0FEA3E0FFE4FCFDD3121B05400890006A
:100B710035E004F0803F900018E0FEA3E0FF7C0028
:100B81007D14121C1BE47B64FAF9F8121A65A8049F
:100B9100A905AA06AB0790000EE0FEA3E0FFE4FC66
:100BA100FDD3121B054009900035E02402F08005B9
:100BB100E4900035F090000EE0FFA3E090000BCF31
:100BC100F0A3EFF090000AE0C3940A5003E004F0B0
:100BD100900035E0D39403401B9000A47401F09081
:100BE100008FE4F0A37402F07BFF7A30793D121D8F
:100BF10018021343123C6890002DEEF0A3EFF07B36
:100C0100FF7A30794390002DE0FFA3E0900058CFA8
:100C1100F0A3EFF0121D189000ADE0700C9000AC45
:100C2100E060129000DFE0700C9000227404F0A3E9
:100C310074D0F0800A9000227403F0A374F5F09050
:100C41000022E0FEA3E0FFC390002EE09F90002D64
:100C5100E09E502D7F327E007D007C001242C0124A
:100C61003C68D3900023E09F900022E09E401290C8
:100C710000A47405F01246919000877409F00213E4
:100C81004390001DE0FF90000EE0FCA3E0FD90000A
:100C910018E0FAA3E0FB90003EE090004DF0122C2A
:100CA100A1EF7003020D999000AB7401F09000A4C4
:100CB100F09000A6E060030213439000ACE07003E3
:030CC100021343D8
:100CC400E4900045F0A3F0A3743CF07F0A7E007D1D
:100CD400007C001242C0124691900047E0FF14F0DD
:100CE400EF70030213437FDE7E037D007C0012421B
:100CF400C01244F97F0A7E007D007C001242C012BB
:100D04003DE6900010EEF0A3EFF0900085E0FEA326
:100D1400E0FFC3900011E09FF0900010E09EF0907F
:100D24000045E07002A3E0700F900010E0FFA3E024
:100D3400900045CFF0A3EFF01246917BFF7A307913
:100D44004F900010E0FFA3E0900058CFF0A3EFF025
:100D5400121D18900046E02407FF900045E034007F
:100D6400FED3900011E09F900010E09E501CA3E081
:100D74002407FF900010E03400FED3900046E09F6B
:100D8400900045E09E5003020CDDE49000ABF002BD
:020D9400134307
:100D960002134390001DE0C394FF400302014EE09E
:100DA60004F002014E900025E06403600302101770
:100DB600A3E090000DF09000ADE0601790008CE08D
:100DC600B4021090009E121B350001F7E890009BBC
:100DD6007402F090001AE0640170379000ADE06094
:100DE6001390008CE0B4020C90009C7401F0A37484
:100DF6005EF0801490009E121B3500023A5090005F
:100E06009C7401F0A374F4F09000ACE07022C292DE
:100E1600801E90001AE0D39403401590000DE06404
:100E260037600D9000ACE06007C292E490001AF0C3
:100E360090001AE0600204F090001EE0603390001B
:100E46008CE06402702B9000ACE0B4012490001E8C
:100E5600E0B401129000ABE0B4010B7402F0E49030
:100E6600001EF002014EE490001EF0124100020145
:100E76004E90000DE064F670669000ADE06401707F
:100E86005E900036E07058123DE6900010EEF0A33A
:100E9600EFF0123AB8900016EEF0A3EFF0900016BD
:100EA600E0FEA3E0FF7C007D64121985AA06AB076D
:100EB600900010E0FEA3E0FF7C007D0A121985ADCC
:100EC60003AC02121973900018EEF0A3EFF0D3E012
:100ED60094A0900018E0940F4005E490000DF09067
:100EE6000026E0900036F0900007E0FBA3E0FAA3AE
:100EF600E0F91218F9FFE4FCFDFE1242C09000DF93
:100F0600E0C39402401C900030E0B4011590000D3F
:100F1600E0700F7D047F0212380BE4900030F0027F
:100F2600014E90000DE0648170749000DFE0C39480
:100F360003406B90009EE0FCA3E0FDA3E0FEA3E06F
:100F460024B8FFEE3488FEE43DFDE43CFC90009EB0
:100F5600121B297F507E3A7D027C0090009EE0F8AD
:100F6600A3E0F9A3E0FAA3E0FBD3121B05400A9025
:100F7600009E121B3500023A5012311BE490000D00
:100F8600F07BFF7A30795990009EE0FCA3E0FDA348
:100F9600E0FEA3E0FF900058121B29121D189000D6
:100FA60037E0600714F0E490000DF07BFF7A3079AB
:100FB6006290000DE0900058F0121D1890008EE02F
:100FC600600B7BFF7A30796B121D1880097BFF7AE4
:100FD600307972121D189000A3E06008C394FF5088
:100FE60003E004F090000DE06019900037E0600B1C
:100FF60090000DE0C364809480500890000DE0FFDF
:101006001234CE7F057E007D007C001242C00201B4
:101016004E900025E064057031A3E0B46422900090
:10102600217401F0D2927BFF7A307979900026E024
:10103600900058F0121D1890003E7464F002014EA4
:10104600C292E4900021F002014E900025E0B4180F
:101056001990008CE0B402129000A67401F07BFF98
:101066007A30798A121D1802014E900025E0642814
:1010760060030211117BFF7A307998A3E090005843
:10108600F0900027E0900059F0121D18900026E01D
:10109600B40612A3E0B42C0D9000B07401F09000D9
:1010A600A6F002014E900026E07012A3E0B4010DF6
:1010B6009000B07401F09000A6F002014E90002658
:1010C600E0B40C16A3E070129000ABE060030201DE
:1010D6004E90001E7402F002014E900026E0B4010C
:1010E60016A3E070129000ABE0600302014E900080
:1010F6001E7402F002014E900026E0640F600302A7
:10110600014EA3E090003EF002014E900025E064FF
:101116001960030212447BFF7A3079A8C003C0022B
:10112600C001900042E0FBA3E0FAA3E0F9900003BF
:10113600121912900058F0D001D002D003121D18D7
:101146009000DFE0640260030211F9900030E06075
:10115600030211F9900042E0FBA3E0FAA3E0F99044
:101166000003121912D3940A50030211F99000DFFA
:101176007403F0900042E0A3E0A3E090000312198C
:1011860012FFC31390002FF07F057E007D007C00C8
:101196001242C090009EE0FCA3E0FDA3E0FEA3E0A7
:1011A6002498FFEE343AFEE43DFDE43CFC90009EBC
:1011B600121B297F507E3A7D027C0090009EE0F84B
:1011C600A3E0F9A3E0FAA3E0FBD3121B05400A90C3
:1011D600009E121B3500023A5012311B7F02124448
:1011E600757BFF7A3079B2121D189000A37401F056
:1011F60002014E9000DFE06402600302014E90009F
:1012060030E0600302014E900042E0FBA3E0FAA347
:10121600E0F9900003121912D3940A400302014E1A
:101226009000DF7403F0900042E0A3E0A3E090009A
:1012360003121912FFC31390002FF002014E900003
:1012460025E06401600EE064516009E064716004A9
:10125600E0B4812E1246917F0A7E007D007C00124A
:1012660042C09000A47401F07BFF7A3079B79000F9
:1012760025E0900058F0121D189000877405F002C2
:101286001343900025E0B4063090001AE064016034
:101296000302014E7F05FEFDFC1242C01246917FFD
:1012A6000A7E007D007C001242C09000A47401F00A
:1012B6009000877405F0021343900025E0643F60B8
:1012C6000302014EA3E064EC600302014E123DE608
:1012D600900010EEF0A3EFF0900010E0FEA3E0FF08
:1012E6007C007D64121985900014EFF0E075F064BF
:1012F600A4FF900010E0A3E0C39F900015F09000BB
:1013060027E0FFA3E0FD900014E0FBA3E090004B74
:10131600F01200037BFF7A3079C9904780E493FF8F
:101326007E007C007D64121973A3E4932FFFEC3ECC
:10133600900058F0A3EFF0121D1802014E9000A481
:10134600E0640470030213E0E4FF124708124691BA
:10135600C282900087E0FFA3E06F7051900087E0A3
:10136600604B90008AE004F09000DFE0D3940040E8
:1013760020900087E0B40119900042E0FBA3E0FA58
:10138600A3E0F9900003121912700690008AE01487
:10139600F090008AE0FF7403D39F50177BFF7A30EA
:1013A60079D3121D1890008B7401F0800690008A84
:1013B6007401F07BFF7A3079E4900087E090005862
:1013C600F0900088E0900059F090008AE090005A72
:1013D600F0121D18900087E0A3F09000ABE0B40275
:0313E60002E4F02E
:0113E90022E1
:1045A90053B1BF53B2BF75985243892043878043A3
:1045B9008E1053C4DFAB07AA06A905A8047F407E65
:1045C900427D0F7C00121A65EF04F404F58DD28E3A
:0145D90022BF
:10467000538EF7438901D28CEF4E6012758AF37521
:104680008CFF308DFDC28DEF1F70011E80EAC28C41
:014690002207
:1042C00090004D121B29538EF7438901D28CE4FFD5
:1042D000FEFDFC90004DE0F8A3E0F9A3E0FAA3E0B6
:1042E000FBC3121B056033758ACA758CFA308DFDCD
:1042F000C28D90004DE0FCA3E0FDA3E0FEA3E0FF33
:1043000074FFEF24FFFFEE34FFFEED34FFFDEC34CD
:0D431000FFFC90004D121B2980B4C28C22CE
:0300000002399C26
:10399C0075C7AA75C755439F0175AF0475A63075D9
:1039AC00A70075C7AA75C75543A401AAAE75A63161
:1039BC0075C7AA75C75543A401ABAE75A63275C7BA
:1039CC00AA75C75543A401ACAE75A63375C7AA75C5
:1039DC00C75543A401ADAE75C7AA75C755539FFE15
:1039EC0075C7AA75C75575910175C7AA75C7558A4C
:1039FC008475C7AA75C7558B8575C7AA75C7558CAD
:103A0C00EF75C7AA75C7558DF775C7AA75C75575D4
:103A1C009100787FE4F6D8FD9000007FFF7E01E4F2
:0C3A2C00F0A3DFFCDEFA758169023A733A
:1013EA00EC4D6011E8497017ED33EC3304600DE4FD
:1013FA00FCFFFEFD22E933E8330470F802159A1265
:10140A00156558046009E4CC248150062850090265
:10141A0015A42840030215A1C0E0EB4A7044B98024
:10142A0006D0E0FB021590EF4E701CBD8008EBFF62
:10143A00EAFEE9FD80EBE98DF0A4FEE5F00214D3A3
:10144A00E9CDF9EAFEEBFFEF89F0A4FCE5F0CE89DD
:10145A00F0A42EFFE435F0CD89F0A42DFEE435F09A
:10146A008067EF4E7005BD80D780C3EF8BF0A4ACC8
:10147A00F0EE8BF0A42CFCE435F0F8EF8AF0A42C03
:10148A00E5F038FCE433CB8DF0A42CFCE5F03BF816
:10149A00EE8AF0A42CFCE5F038F8E433CF89F0A406
:1014AA002CFCE5F038CF3400CE89F0A42FFFE5F00C
:1014BA003EFEE433C98DF0A42EFEE5F039CD8AF064
:1014CA00A42FFFE5F03EFEE43DFD33D0E0FB5007DC
:1014DA000BBB000F0215A4EC2CFCEF33FFEE33FE1E
:0614EA00ED33FD02157C4C
:1014F00075F020800E75F010800575F0087D007E77
:10150000007F003392D530D503121AF7EC33401028
:10151000EF33FFEE33FEED33FDEC33FCD5F0ED227F
:0E152000E5F0247EA2D513CC92E7CDCEFF22BB
:10152E00EDD2E7CD33EC3392D524814006E4FFFEB5
:10153E00FDFC22FCE4CFCECDCC24E0501174FF8014
:10154E00EDC3CC13CCCD13CDCE13CECF13CF0470B1
:07155E00F030D5DE021AF7A0
:101CAD00E50D2458F582E43400F583E0050D22900E
:101CBD000055300703900058E475F001121B6602C1
:101CCD0018F92000E97F2ED2008018EF540F2490D0
:101CDD00D43440D4FF30040BEF24BFB41A005003AA
:101CED002461FFE50E6002150E0511E51170020568
:101CFD001030070E900055E475F001121B66EF02CF
:101D0D00193F0246057403D2078003E4C207F50D9F
:101D1D00900055121B7DE4F50EF510F511E50E60E2
:101D2D00077F20121CF080F5750FFFC201C200C2A3
:101D3D0002C203C205C206C208121CBCFF700D30E0
:101D4D0007057F00121D01AF11AE1022B4255FC231
:101D5D00D5C204121CBCFF24D0B40A00501A75F071
:101D6D000A780E30D50508B6FF0106C6A426F62062
:101D7D00D5047002D20380D924CFB41A00EF5004D9
:101D8D00C2E5D204021FF3D20180C6D20080C0D2B8
:101D9D000280BCD2D580BAD20580B47F20121CF04F
:101DAD002002077401B50E0040F1121CADFF121C8C
:101DBD00F0021D2AD208D2068095121CADFB121C12
:101DCD00ADFA121CADF94A4B700679F17A207BFF02
:101DDD0020022EE50E602A7E008E82758300121978
:101DED001260060EEE650F70F0C2D5EBC0E0EAC0D2
:101DFD00E0E9C0E0EE122054D0E0F9D0E0FAD0E0F6
:101E0D00FB1218F9FF60AAEBC0E0EAC0E0E9C0E000
:101E1D00121CF0D0E02401F9D0E03400FAD0E0FB40
:101E2D00E50F0460DCD50FD98087D20280A2122085
:101E3D003660F7E50F7001041215AFA90F600DE5BF
:101E4D000F600914F50F1220DEEF60F3EA30E702A0
:101E5D00F404C3995079EAF4250F0430E701E40442
:101E6D00F50F800D12203660C1EA050F250F1215F2
:101E7D00AFEA900084F030E701E4250F04D50F049C
:101E8D0020050114122054E4C0E01220DE900084DD
:101E9D00E0601320E70714F0121CD8802204F0D064
:101EAD00E014C0E07F00121CD8E50F6007121CCFB4
:101EBD00150F800B300503121CCFD0E0021D2AD068
:101ECD00E00480C4122036609EE50F041215AF9019
:101EDD000084EAF0E50F20050260010424041220BD
:011EED0054A0
:101EEE0074FF04C0E01220DE121CD8E50F2005029C
:101EFE006003121CCFD0E0B50FE87F45121CE290B4
:101F0E000084E07F2B30E7047F2DF404C0E0121C28
:101F1E00F0D0E075F00A84C0F0121CD9D0E0121C8B
:101F2E00D9021D2A791080027908C206C2088008DB
:101F3E00D2D5790A8004790AC2D5E50F047002F56C
:101F4E000FE4FAFDFEFF121CADFC7B0820011312FC
:101F5E001CADFD7B1030000A121CADFE121CADFF35
:101F6E007B20EC3382D592D55013C3E43000069F0C
:101F7E00FFE49EFEE42001039DFDE49CFCE4CBF80F
:101F8E00C201EC700CCFCECDCCE824F8F870F38003
:101F9E0017C3EF33FFEE33FEED33FDEC33FCEB33C3
:101FAE00FB994002FB0FD8E9EB300105F8D0E0C4F5
:101FBE0048B201C0E00AEC4D4E4F78207B0070C253
:101FCE00EAB50F0040BCC0E0122056D0F0D0E020A1
:101FDE000104C4C0E0C4B201C0F0121CD9D0F0D5C7
:101FEE00F0EB021D2A121BF51DC7531F32581D9808
:101FFE004C1D94421F364F1F3E441F3E491DAD439C
:10200E001F44551E71461ED1451E3B472111501DC2
:10201E009C2D1DA02E1DC32B1DA4231DC12020FAF7
:10202E002A1D5C4800001DBBE50FB4FF03750F06AB
:10203E00121CADFC121CADFD121CADFE121CADFF30
:10204E0090007D0215EC790AA2D520031430050903
:10205E00B910020404B9080104A2D52006025001E9
:10206E00042002689202B50E005034C0E07F20308A
:10207E0003197F30A20272067205500F1220ADC2F4
:10208E0002C206C205C2087F30800F300503E9C0C8
:10209E00E0121CF0300503D0E0F9D0E0B50ECC30E4
:1020AE0005177F30B9100C121CF07F583004077FD3
:1020BE00788003B90803121CF03002057F2D021C34
:1020CE00F07F202008F87F2B2006F322920280CF8B
:1020DE007F00B40700500B247DF582E43400F583B5
:1020EE00E0FF22286E756C6C2900D201121CAD30F7
:1020FE0001F8C201780E30D50108F6021D5C2D5094
:10210E00434958121CAD2403B405004001E490214C
:10211E000C93121CE1743A121CE1D203750E0402E8
:02212E001F325E
:10156500E9D2E7C933E833F892D5EDD2E7CD33ECCC
:0715750033FC5002B2D52245
:10157C00EC30E7100FBF000C0EBE00080DBD0004D0
:10158C000BEB6014A2D5EB13FCED92E7FD2274FF7C
:10159C00FCFDFEFF22E480F8A2D574FF13FC7D80D5
:0315AC00E480EFE9
:1015AF00F920E73624F950037907E4F42402FBE528
:1015BF0082158270021583DBF6E024FB501BE96075
:1015CF0014E4F0E582158270021583E004F0B40A8A
:0D15DF0008E4F0D9EE7401F00A22C2D52212
:1015EC00ED33EC3392D5FA602AB4FF33EDC2E77BCE
:1015FC00FF60067A167911E4227A16791A20D5043E
:10160C007A167915224E614E002B494E46002D4913
:10161C004E4600E47A08F0A3DAFC7B00740722C083
:10162C0083C082ECC0E0EDC0E0EEC0E0EFC0E0EAC9
:10163C0075F010A4CAABF075F04DA42BFBE435F09B
:10164C00FCEA2410FAEB34C5FBEC34D9FCEDC2E710
:10165C00FF75F056A4F42411C5F0F434C58FF0A432
:10166C002AE5F03BE43CF020E7141218B9D0E0FF77
:10167C00D0E0FED0E0FDD0E0FC1217EC8014F404B6
:10168C001218B9D0E0FFD0E0FED0E0FDD0E0FC12A3
:10169C0013EAD082D083E0FAEDD2E7CD33EC3324D9
:1016AC0082FBE4C3CF33CFCE33CECD33CD33DBF39C
:1016BC007B0775F00A846004F0A31B0AE5F0F0A325
:1016CC008FF0740AA4FFACF08EF0740AA42CFEAC5C
:1016DC00F050010C8DF0740AA42CFDE435F0F0A34D
:0516EC00DBDE740722A3
:1016F10002159AE86480F8E933E83360110460F078
:10170100ED33EC337009E8FCE9FDEAFEEBFF22045E
:1017110060DED3EB9FEA9EE99DE8C2E78CF0C2F759
:1017210095F0400CE8CCF8E9CDF9EACEFAEBCFFB25
:1017310012156585D0F05804700320D5B3E8047004
:10174100075002B2D50215A492D5EC0460F7E4CC9F
:10175100C0E0C398F8603B94186008400DD0E0FBEE
:1017610002157CE4FBFAC9FC8028E830E406E4C9F0
:10177100FBE4CAFCE830E305E4C9CACBFCE8540742
:101781006010F8C3E913F9EA13FAEB13FBEC13FC4D
:10179100D8F130F52FC3E49CFCEF9BFFEE9AFEEDF0
:1017A10099FDD0E0FBEF4E4D4C701222DB03021588
:1017B100A1EC2CFCEF33FFEE33FEED33FDED30E712
:1017C100EB02157CEF2BFFEE3AFEED39FDD0E0FB8D
:1017D10050130BBB00030215A4ED13FDEE13FEEF36
:0817E10013FFEC13FC02157C60
:1017E9000215A4EC5D046005E85904700302159A1A
:1017F900121565580460F6EC4860F2EC7004FDFEC1
:10180900FF22C860DB2481C85009C39860025006D2
:101819000215A19850CAF582E9294B4A7005AB8295
:1018290002159075F0007C1A7880C3EF9BEE9AED53
:1018390099400DC3EF9BFFEE9AFEED99FDE842F04A
:10184900DC23ACF0D0E0FFD0E0FED0E0FDAB82209D
:10185900E7101BEB60BAEC2CFCEF33FFEE33FEED27
:1018690033FD02157CE803F830E705C0F075F00098
:10187900EF2FFFEE33FEED33FD40B830E7C280AA0B
:101889003F8000004120000042C80000447A000067
:10189900461C400047C35000497424004B189680E9
:1018A9004CBEBC205A0E1BCA6753C21C749DC5AEE0
:1018B900FB60065407601C23231218E7EB543860B9
:1018C900091218D31218E21213EAECF8EDF9EEFA3C
:1018D900EFCB22EB1218E280F1543803241C901844
:1018E90089FE93FC0EEE93FD0EEE930ECE93FF222E
:103A380002293CE493A3F8E493A34003F68001F23F
:103A480008DFF48029E493A3F85407240CC8C3338F
:103A5800C4540F4420C8834004F456800146F6DF5E
:103A6800E4800B0102040810204080903F61E47E4E
:103A7800019360BCA3FF543F30E509541FFEE49353
:103A8800A360010ECF54C025E060A840B8E493A31A
:103A9800FAE493A3F8E493A3C8C582C8CAC583CA45
:103AA800F0A3C8C582C8CAC583CADFE9DEE780BEFD
:013FF20000CE
:1018F900BB010689828A83E0225002E722BBFE02ED
:09190900E32289828A83E493221F
:10191200BB010CE58229F582E5833AF583E022508A
:1019220006E92582F8E622BBFE06E92582F8E222D4
:0D193200E58229F582E5833AF583E49322EE
:10193F00BB010689828A83F0225002F722BBFE0187
:02194F00F32281
:10195100F8BB010DE58229F582E5833AF583E8F0CC
:10196100225006E92582C8F622BBFE05E92582C878
:02197100F22260
:10197300EF8DF0A4A8F0CF8CF0A428CE8DF0A42E88
:02198300FE2242
:10198500BC000BBE0029EF8DF084FFADF022E4CC46
:10199500F875F008EF2FFFEE33FEEC33FCEE9DEC0F
:1019A500984005FCEE9DFE0FD5F0E9E4CEFD22ED55
:1019B500F8F5F0EE8420D21CFEADF075F008EF2F9F
:1019C500FFED33FD4007985006D5F0F222C398FD90
:0519D5000FD5F0EA222D
:1019DA00E88FF0A4CC8BF0A42CFCE98EF0A42CFCAC
:1019EA008AF0EDA42CFCEA8EF0A4CDA8F08BF0A42A
:1019FA002DCC3825F0FDE98FF0A42CCD35F0FCEB89
:101A0A008EF0A4FEA9F0EB8FF0A4CFC5F02ECD394D
:0F1A1A00FEE43CFCEAA42DCE35F0FDE43CFC22BA
:101A290075F008758200EF2FFFEE33FECD33CDCC74
:101A390033CCC58233C5829BED9AEC99E5829840F7
:101A49000CF582EE9BFEED9AFDEC99FC0FD5F0D6D4
:101A5900E4CEFBE4CDFAE4CCF9A88222B800C1B9FE
:101A69000059BA002DEC8BF084CFCECDFCE5F0CB3C
:101A7900F97818EF2FFFEE33FEED33FDEC33FCEB75
:101A890033FB10D703994004EB99FB0FD8E5E4F930
:101A9900FA227818EF2FFFEE33FEED33FDEC33FC1D
:101AA900C933C910D7059BE99A4007EC9BFCE99A11
:101AB900F90FD8E0E4C9FAE4CCFB2275F010EF2F56
:101AC900FFEE33FEED33FDCC33CCC833C810D70756
:101AD9009BEC9AE899400AED9BFDEC9AFCE899F891
:0E1AE9000FD5F0DAE4CDFBE4CCFAE4C8F92224
:0E1AF700C3E49FFFE49EFEE49DFDE49CFC2200
:101B0500EB9FF5F0EA9E42F0E99D42F0E89C45F036
:011B150022AD
:101B1600E8600FECC313FCED13FDEE13FEEF13FFAD
:031B2600D8F122D1
:0C1B2900ECF0A3EDF0A3EEF0A3EFF0222F
:101B3500A8828583F0D083D082121B4C121B4C12D5
:101B45001B4C121B4CE473E493A3C583C5F0C583FA
:101B5500C8C582C8F0A3C583C5F0C583C8C582C8FA
:011B6500225D
:101B6600F8E0FBA3A3E0F925F0F0E5821582700208
:071B76001583E0FA38F022AC
:091B7D00EBF0A3EAF0A3E9F02269
:101B8600BB010789828A83021C865005E9F8021C7C
:101B960074BBFE05E9F8021C8F89828A83021CA1A8
:101BA600BB011A89828A83D0F0D0E0F8D0E0F9D060
:101BB600E0FAD0E0FBE8C0E0C0F0021B7D5016E979
:101BC600F8D083D082D0E0F9D0E0FAD0E0FBC08232
:101BD600C083021C7DBBFE16E9F8D083D082D0E01C
:0F1BE600F9D0E0FAD0E0FBC082C083021C982245
:101BF500D083D082F8E4937012740193700DA3A37F
:101C050093F8740193F5828883E473740293686092
:061C1500EFA3A3A380DF92
:101C1B00EC8EF0A4CCC5F0CCCDF8EFA4CEC5F02D56
:101C2B00FDE43CFCE8A42EC8C5F03DFDE43CFCEF14
:0D1C3B00A4FFE5F028FEE43DFDE43CFC22A2
:10460500EFB40A07740D124610740A309811A89970
:10461500B8130CC2983098FDA899C298B811F63015
:0746250099FDC299F59922ED
:101C4800EF4E6012EF60010EEDBB010B89828A83B3
:101C5800F0A3DFFCDEFA2289F05007F709DFFCA9C0
:0C1C6800F022BBFEFCF309DFFCA9F02217
:091C7400E6FB08E6FA08E6F92295
:091C7D00EBF608EAF608E9F6228C
:091C8600E0FBA3E0FAA3E0F9225F
:091C8F00E2FB08E2FA08E2F92286
:091C9800EBF208EAF208E9F2227D
:0C1CA100E493FB740193FA740293F9229F
:00000001FF
